{
  "_format": "hh-sol-artifact-1",
  "contractName": "ERC1155",
  "sourceName": "contracts/ERC1155.sol",
  "abi": [
    {
      "anonymous": false,
      "inputs": [
        {
          "indexed": true,
          "internalType": "address",
          "name": "_owner",
          "type": "address"
        },
        {
          "indexed": true,
          "internalType": "address",
          "name": "_operator",
          "type": "address"
        },
        {
          "indexed": false,
          "internalType": "bool",
          "name": "_approved",
          "type": "bool"
        }
      ],
      "name": "ApprovalForAll",
      "type": "event"
    },
    {
      "anonymous": false,
      "inputs": [
        {
          "indexed": false,
          "internalType": "address",
          "name": "_operator",
          "type": "address"
        },
        {
          "indexed": false,
          "internalType": "address",
          "name": "_from",
          "type": "address"
        },
        {
          "indexed": false,
          "internalType": "address",
          "name": "_to",
          "type": "address"
        },
        {
          "indexed": false,
          "internalType": "uint256[]",
          "name": "_ids",
          "type": "uint256[]"
        },
        {
          "indexed": false,
          "internalType": "uint256[]",
          "name": "_values",
          "type": "uint256[]"
        }
      ],
      "name": "TransferBatch",
      "type": "event"
    },
    {
      "anonymous": false,
      "inputs": [
        {
          "indexed": true,
          "internalType": "address",
          "name": "_operator",
          "type": "address"
        },
        {
          "indexed": true,
          "internalType": "address",
          "name": "_from",
          "type": "address"
        },
        {
          "indexed": true,
          "internalType": "address",
          "name": "_to",
          "type": "address"
        },
        {
          "indexed": false,
          "internalType": "uint256",
          "name": "_id",
          "type": "uint256"
        },
        {
          "indexed": false,
          "internalType": "uint256",
          "name": "_value",
          "type": "uint256"
        }
      ],
      "name": "TransferSingle",
      "type": "event"
    },
    {
      "inputs": [
        {
          "internalType": "address",
          "name": "account",
          "type": "address"
        },
        {
          "internalType": "uint256",
          "name": "id",
          "type": "uint256"
        }
      ],
      "name": "balanceOf",
      "outputs": [
        {
          "internalType": "uint256",
          "name": "",
          "type": "uint256"
        }
      ],
      "stateMutability": "view",
      "type": "function"
    },
    {
      "inputs": [
        {
          "internalType": "address[]",
          "name": "accounts",
          "type": "address[]"
        },
        {
          "internalType": "uint256[]",
          "name": "ids",
          "type": "uint256[]"
        }
      ],
      "name": "balanceOfBatch",
      "outputs": [
        {
          "internalType": "uint256[]",
          "name": "",
          "type": "uint256[]"
        }
      ],
      "stateMutability": "view",
      "type": "function"
    },
    {
      "inputs": [
        {
          "internalType": "address",
          "name": "account",
          "type": "address"
        },
        {
          "internalType": "address",
          "name": "operator",
          "type": "address"
        }
      ],
      "name": "isApprovedForAll",
      "outputs": [
        {
          "internalType": "bool",
          "name": "",
          "type": "bool"
        }
      ],
      "stateMutability": "view",
      "type": "function"
    },
    {
      "inputs": [
        {
          "internalType": "address",
          "name": "from",
          "type": "address"
        },
        {
          "internalType": "address",
          "name": "to",
          "type": "address"
        },
        {
          "internalType": "uint256[]",
          "name": "ids",
          "type": "uint256[]"
        },
        {
          "internalType": "uint256[]",
          "name": "amounts",
          "type": "uint256[]"
        }
      ],
      "name": "safeBatchTransferFrom",
      "outputs": [],
      "stateMutability": "nonpayable",
      "type": "function"
    },
    {
      "inputs": [
        {
          "internalType": "address",
          "name": "from",
          "type": "address"
        },
        {
          "internalType": "address",
          "name": "to",
          "type": "address"
        },
        {
          "internalType": "uint256",
          "name": "id",
          "type": "uint256"
        },
        {
          "internalType": "uint256",
          "name": "amount",
          "type": "uint256"
        }
      ],
      "name": "safeTransferFrom",
      "outputs": [],
      "stateMutability": "nonpayable",
      "type": "function"
    },
    {
      "inputs": [
        {
          "internalType": "address",
          "name": "operator",
          "type": "address"
        },
        {
          "internalType": "bool",
          "name": "approved",
          "type": "bool"
        }
      ],
      "name": "setApprovalForAll",
      "outputs": [],
      "stateMutability": "nonpayable",
      "type": "function"
    },
    {
      "inputs": [
        {
          "internalType": "bytes4",
          "name": "interfaceId",
          "type": "bytes4"
        }
      ],
      "name": "supportsInterface",
      "outputs": [
        {
          "internalType": "bool",
          "name": "",
          "type": "bool"
        }
      ],
      "stateMutability": "pure",
      "type": "function"
    }
  ],
  "bytecode": "0x608060405234801561001057600080fd5b5061166c806100206000396000f3fe608060405234801561001057600080fd5b506004361061007c5760003560e01c80634e1273f41161005b5780634e1273f4146100fd578063a22cb4651461012d578063e985e9c514610149578063fba0ee64146101795761007c565b8062fdd58e1461008157806301ffc9a7146100b15780630febdd49146100e1575b600080fd5b61009b60048036038101906100969190610b3b565b610195565b6040516100a89190610b8a565b60405180910390f35b6100cb60048036038101906100c69190610bfd565b61025d565b6040516100d89190610c45565b60405180910390f35b6100fb60048036038101906100f69190610c60565b61028f565b005b61011760048036038101906101129190610ee3565b610454565b6040516101249190611019565b60405180910390f35b61014760048036038101906101429190611067565b610569565b005b610163600480360381019061015e91906110a7565b610666565b6040516101709190610c45565b60405180910390f35b610193600480360381019061018e91906110e7565b6106fa565b005b60008073ffffffffffffffffffffffffffffffffffffffff168373ffffffffffffffffffffffffffffffffffffffff1603610205576040517f08c379a00000000000000000000000000000000000000000000000000000000081526004016101fc906111e3565b60405180910390fd5b60008083815260200190815260200160002060008473ffffffffffffffffffffffffffffffffffffffff1673ffffffffffffffffffffffffffffffffffffffff16815260200190815260200160002054905092915050565b600063d9b67a2660e01b827bffffffffffffffffffffffffffffffffffffffffffffffffffffffff1916149050919050565b3373ffffffffffffffffffffffffffffffffffffffff168473ffffffffffffffffffffffffffffffffffffffff1614806102cf57506102ce8433610666565b5b61030e576040517f08c379a000000000000000000000000000000000000000000000000000000000815260040161030590611275565b60405180910390fd5b600073ffffffffffffffffffffffffffffffffffffffff168373ffffffffffffffffffffffffffffffffffffffff160361037d576040517f08c379a0000000000000000000000000000000000000000000000000000000008152600401610374906112e1565b60405180910390fd5b6103898484848461091e565b8273ffffffffffffffffffffffffffffffffffffffff168473ffffffffffffffffffffffffffffffffffffffff163373ffffffffffffffffffffffffffffffffffffffff167fc3d58168c5ae7397731d063d5bbf3d657854427343f4c083240f7aacaa2d0f6285856040516103ff929190611301565b60405180910390a461040f610a81565b61044e576040517f08c379a000000000000000000000000000000000000000000000000000000000815260040161044590611376565b60405180910390fd5b50505050565b6060815183511461049a576040517f08c379a000000000000000000000000000000000000000000000000000000000815260040161049190611408565b60405180910390fd5b6000835167ffffffffffffffff8111156104b7576104b6610cdd565b5b6040519080825280602002602001820160405280156104e55781602001602082028036833780820191505090505b50905060005b845181101561055e5761053285828151811061050a57610509611428565b5b602002602001015185838151811061052557610524611428565b5b6020026020010151610195565b82828151811061054557610544611428565b5b60200260200101818152505080806001019150506104eb565b508091505092915050565b80600160003373ffffffffffffffffffffffffffffffffffffffff1673ffffffffffffffffffffffffffffffffffffffff16815260200190815260200160002060008473ffffffffffffffffffffffffffffffffffffffff1673ffffffffffffffffffffffffffffffffffffffff16815260200190815260200160002060006101000a81548160ff0219169083151502179055508173ffffffffffffffffffffffffffffffffffffffff163373ffffffffffffffffffffffffffffffffffffffff167f17307eab39ab6107e8899845ad3d59bd9653f200f220920489ca2b5937696c318360405161065a9190610c45565b60405180910390a35050565b6000600160008473ffffffffffffffffffffffffffffffffffffffff1673ffffffffffffffffffffffffffffffffffffffff16815260200190815260200160002060008373ffffffffffffffffffffffffffffffffffffffff1673ffffffffffffffffffffffffffffffffffffffff16815260200190815260200160002060009054906101000a900460ff16905092915050565b3373ffffffffffffffffffffffffffffffffffffffff168473ffffffffffffffffffffffffffffffffffffffff16148061073a57506107398433610666565b5b610779576040517f08c379a000000000000000000000000000000000000000000000000000000000815260040161077090611275565b60405180910390fd5b600073ffffffffffffffffffffffffffffffffffffffff168373ffffffffffffffffffffffffffffffffffffffff16036107e8576040517f08c379a00000000000000000000000000000000000000000000000000000000081526004016107df906112e1565b60405180910390fd5b805182511461082c576040517f08c379a0000000000000000000000000000000000000000000000000000000008152600401610823906114a3565b60405180910390fd5b60005b825181101561089157600083828151811061084d5761084c611428565b5b60200260200101519050600083838151811061086c5761086b611428565b5b602002602001015190506108828787848461091e565b5050808060010191505061082f565b507f4a39dc06d4c0dbc64b70af90fd698a233a518aa5d07e595d983b8c0526c8f7fb33858585856040516108c99594939291906114d2565b60405180910390a16108d9610a8a565b610918576040517f08c379a000000000000000000000000000000000000000000000000000000000815260040161090f90611376565b60405180910390fd5b50505050565b600080600084815260200190815260200160002060008673ffffffffffffffffffffffffffffffffffffffff1673ffffffffffffffffffffffffffffffffffffffff168152602001908152602001600020549050818110156109b5576040517f08c379a00000000000000000000000000000000000000000000000000000000081526004016109ac9061157f565b60405180910390fd5b81816109c191906115ce565b60008085815260200190815260200160002060008773ffffffffffffffffffffffffffffffffffffffff1673ffffffffffffffffffffffffffffffffffffffff168152602001908152602001600020819055508160008085815260200190815260200160002060008673ffffffffffffffffffffffffffffffffffffffff1673ffffffffffffffffffffffffffffffffffffffff1681526020019081526020016000206000828254610a739190611602565b925050819055505050505050565b60006001905090565b60006001905090565b6000604051905090565b600080fd5b600080fd5b600073ffffffffffffffffffffffffffffffffffffffff82169050919050565b6000610ad282610aa7565b9050919050565b610ae281610ac7565b8114610aed57600080fd5b50565b600081359050610aff81610ad9565b92915050565b6000819050919050565b610b1881610b05565b8114610b2357600080fd5b50565b600081359050610b3581610b0f565b92915050565b60008060408385031215610b5257610b51610a9d565b5b6000610b6085828601610af0565b9250506020610b7185828601610b26565b9150509250929050565b610b8481610b05565b82525050565b6000602082019050610b9f6000830184610b7b565b92915050565b60007fffffffff0000000000000000000000000000000000000000000000000000000082169050919050565b610bda81610ba5565b8114610be557600080fd5b50565b600081359050610bf781610bd1565b92915050565b600060208284031215610c1357610c12610a9d565b5b6000610c2184828501610be8565b91505092915050565b60008115159050919050565b610c3f81610c2a565b82525050565b6000602082019050610c5a6000830184610c36565b92915050565b60008060008060808587031215610c7a57610c79610a9d565b5b6000610c8887828801610af0565b9450506020610c9987828801610af0565b9350506040610caa87828801610b26565b9250506060610cbb87828801610b26565b91505092959194509250565b600080fd5b6000601f19601f8301169050919050565b7f4e487b7100000000000000000000000000000000000000000000000000000000600052604160045260246000fd5b610d1582610ccc565b810181811067ffffffffffffffff82111715610d3457610d33610cdd565b5b80604052505050565b6000610d47610a93565b9050610d538282610d0c565b919050565b600067ffffffffffffffff821115610d7357610d72610cdd565b5b602082029050602081019050919050565b600080fd5b6000610d9c610d9784610d58565b610d3d565b90508083825260208201905060208402830185811115610dbf57610dbe610d84565b5b835b81811015610de85780610dd48882610af0565b845260208401935050602081019050610dc1565b5050509392505050565b600082601f830112610e0757610e06610cc7565b5b8135610e17848260208601610d89565b91505092915050565b600067ffffffffffffffff821115610e3b57610e3a610cdd565b5b602082029050602081019050919050565b6000610e5f610e5a84610e20565b610d3d565b90508083825260208201905060208402830185811115610e8257610e81610d84565b5b835b81811015610eab5780610e978882610b26565b845260208401935050602081019050610e84565b5050509392505050565b600082601f830112610eca57610ec9610cc7565b5b8135610eda848260208601610e4c565b91505092915050565b60008060408385031215610efa57610ef9610a9d565b5b600083013567ffffffffffffffff811115610f1857610f17610aa2565b5b610f2485828601610df2565b925050602083013567ffffffffffffffff811115610f4557610f44610aa2565b5b610f5185828601610eb5565b9150509250929050565b600081519050919050565b600082825260208201905092915050565b6000819050602082019050919050565b610f9081610b05565b82525050565b6000610fa28383610f87565b60208301905092915050565b6000602082019050919050565b6000610fc682610f5b565b610fd08185610f66565b9350610fdb83610f77565b8060005b8381101561100c578151610ff38882610f96565b9750610ffe83610fae565b925050600181019050610fdf565b5085935050505092915050565b600060208201905081810360008301526110338184610fbb565b905092915050565b61104481610c2a565b811461104f57600080fd5b50565b6000813590506110618161103b565b92915050565b6000806040838503121561107e5761107d610a9d565b5b600061108c85828601610af0565b925050602061109d85828601611052565b9150509250929050565b600080604083850312156110be576110bd610a9d565b5b60006110cc85828601610af0565b92505060206110dd85828601610af0565b9150509250929050565b6000806000806080858703121561110157611100610a9d565b5b600061110f87828801610af0565b945050602061112087828801610af0565b935050604085013567ffffffffffffffff81111561114157611140610aa2565b5b61114d87828801610eb5565b925050606085013567ffffffffffffffff81111561116e5761116d610aa2565b5b61117a87828801610eb5565b91505092959194509250565b600082825260208201905092915050565b7f41646472657373206973207a65726f0000000000000000000000000000000000600082015250565b60006111cd600f83611186565b91506111d882611197565b602082019050919050565b600060208201905081810360008301526111fc816111c0565b9050919050565b7f4d73672e73656e646572206973206e6f7420746865206f776e6572206f72206160008201527f7070726f76656420666f72207472616e73666572000000000000000000000000602082015250565b600061125f603483611186565b915061126a82611203565b604082019050919050565b6000602082019050818103600083015261128e81611252565b9050919050565b7f4164647265737320697320300000000000000000000000000000000000000000600082015250565b60006112cb600c83611186565b91506112d682611295565b602082019050919050565b600060208201905081810360008301526112fa816112be565b9050919050565b60006040820190506113166000830185610b7b565b6113236020830184610b7b565b9392505050565b7f5265636569766572206973206e6f7420696d706c656d656e7465640000000000600082015250565b6000611360601b83611186565b915061136b8261132a565b602082019050919050565b6000602082019050818103600083015261138f81611353565b9050919050565b7f4163636f756e747320616e642069647320617265206e6f74207468652073616d60008201527f65206c656e677468000000000000000000000000000000000000000000000000602082015250565b60006113f2602883611186565b91506113fd82611396565b604082019050919050565b60006020820190508181036000830152611421816113e5565b9050919050565b7f4e487b7100000000000000000000000000000000000000000000000000000000600052603260045260246000fd5b7f49647320616e6420616d6f756e747320617265206e6f74207468652073616d65600082015250565b600061148d602083611186565b915061149882611457565b602082019050919050565b600060208201905081810360008301526114bc81611480565b9050919050565b6114cc81610ac7565b82525050565b600060a0820190506114e760008301886114c3565b6114f460208301876114c3565b61150160408301866114c3565b81810360608301526115138185610fbb565b905081810360808301526115278184610fbb565b90509695505050505050565b7f496e73756666696369656e742062616c616e6365000000000000000000000000600082015250565b6000611569601483611186565b915061157482611533565b602082019050919050565b600060208201905081810360008301526115988161155c565b9050919050565b7f4e487b7100000000000000000000000000000000000000000000000000000000600052601160045260246000fd5b60006115d982610b05565b91506115e483610b05565b92508282039050818111156115fc576115fb61159f565b5b92915050565b600061160d82610b05565b915061161883610b05565b92508282019050808211156116305761162f61159f565b5b9291505056fea2646970667358221220c1f1a6036f816579ee680c9dca6d4398b623d9feb9a44d72b5157ec99cc52b0064736f6c63430008160033",
  "linkReferences": {},
  "deployedLinkReferences": {}
}