{
  "_format": "hh-sol-artifact-1",
  "contractName": "SeaGuardians",
  "sourceName": "contracts/SeaGuardians.sol",
  "abi": [
    {
      "inputs": [
        {
          "internalType": "string",
          "name": "_name",
          "type": "string"
        },
        {
          "internalType": "string",
          "name": "_symbol",
          "type": "string"
        },
        {
          "internalType": "string",
          "name": "_baseUri",
          "type": "string"
        }
      ],
      "stateMutability": "nonpayable",
      "type": "constructor"
    },
    {
      "inputs": [
        {
          "internalType": "address",
          "name": "sender",
          "type": "address"
        },
        {
          "internalType": "uint256",
          "name": "balance",
          "type": "uint256"
        },
        {
          "internalType": "uint256",
          "name": "needed",
          "type": "uint256"
        },
        {
          "internalType": "uint256",
          "name": "tokenId",
          "type": "uint256"
        }
      ],
      "name": "ERC1155InsufficientBalance",
      "type": "error"
    },
    {
      "inputs": [
        {
          "internalType": "address",
          "name": "approver",
          "type": "address"
        }
      ],
      "name": "ERC1155InvalidApprover",
      "type": "error"
    },
    {
      "inputs": [
        {
          "internalType": "uint256",
          "name": "idsLength",
          "type": "uint256"
        },
        {
          "internalType": "uint256",
          "name": "valuesLength",
          "type": "uint256"
        }
      ],
      "name": "ERC1155InvalidArrayLength",
      "type": "error"
    },
    {
      "inputs": [
        {
          "internalType": "address",
          "name": "operator",
          "type": "address"
        }
      ],
      "name": "ERC1155InvalidOperator",
      "type": "error"
    },
    {
      "inputs": [
        {
          "internalType": "address",
          "name": "receiver",
          "type": "address"
        }
      ],
      "name": "ERC1155InvalidReceiver",
      "type": "error"
    },
    {
      "inputs": [
        {
          "internalType": "address",
          "name": "sender",
          "type": "address"
        }
      ],
      "name": "ERC1155InvalidSender",
      "type": "error"
    },
    {
      "inputs": [
        {
          "internalType": "address",
          "name": "operator",
          "type": "address"
        },
        {
          "internalType": "address",
          "name": "owner",
          "type": "address"
        }
      ],
      "name": "ERC1155MissingApprovalForAll",
      "type": "error"
    },
    {
      "inputs": [
        {
          "internalType": "address",
          "name": "owner",
          "type": "address"
        }
      ],
      "name": "OwnableInvalidOwner",
      "type": "error"
    },
    {
      "inputs": [
        {
          "internalType": "address",
          "name": "account",
          "type": "address"
        }
      ],
      "name": "OwnableUnauthorizedAccount",
      "type": "error"
    },
    {
      "anonymous": false,
      "inputs": [
        {
          "indexed": true,
          "internalType": "address",
          "name": "account",
          "type": "address"
        },
        {
          "indexed": true,
          "internalType": "address",
          "name": "operator",
          "type": "address"
        },
        {
          "indexed": false,
          "internalType": "bool",
          "name": "approved",
          "type": "bool"
        }
      ],
      "name": "ApprovalForAll",
      "type": "event"
    },
    {
      "anonymous": false,
      "inputs": [
        {
          "indexed": true,
          "internalType": "address",
          "name": "previousOwner",
          "type": "address"
        },
        {
          "indexed": true,
          "internalType": "address",
          "name": "newOwner",
          "type": "address"
        }
      ],
      "name": "OwnershipTransferred",
      "type": "event"
    },
    {
      "anonymous": false,
      "inputs": [
        {
          "indexed": true,
          "internalType": "address",
          "name": "operator",
          "type": "address"
        },
        {
          "indexed": true,
          "internalType": "address",
          "name": "from",
          "type": "address"
        },
        {
          "indexed": true,
          "internalType": "address",
          "name": "to",
          "type": "address"
        },
        {
          "indexed": false,
          "internalType": "uint256[]",
          "name": "ids",
          "type": "uint256[]"
        },
        {
          "indexed": false,
          "internalType": "uint256[]",
          "name": "values",
          "type": "uint256[]"
        }
      ],
      "name": "TransferBatch",
      "type": "event"
    },
    {
      "anonymous": false,
      "inputs": [
        {
          "indexed": true,
          "internalType": "address",
          "name": "operator",
          "type": "address"
        },
        {
          "indexed": true,
          "internalType": "address",
          "name": "from",
          "type": "address"
        },
        {
          "indexed": true,
          "internalType": "address",
          "name": "to",
          "type": "address"
        },
        {
          "indexed": false,
          "internalType": "uint256",
          "name": "id",
          "type": "uint256"
        },
        {
          "indexed": false,
          "internalType": "uint256",
          "name": "value",
          "type": "uint256"
        }
      ],
      "name": "TransferSingle",
      "type": "event"
    },
    {
      "anonymous": false,
      "inputs": [
        {
          "indexed": false,
          "internalType": "string",
          "name": "value",
          "type": "string"
        },
        {
          "indexed": true,
          "internalType": "uint256",
          "name": "id",
          "type": "uint256"
        }
      ],
      "name": "URI",
      "type": "event"
    },
    {
      "inputs": [
        {
          "internalType": "address",
          "name": "account",
          "type": "address"
        },
        {
          "internalType": "uint256",
          "name": "id",
          "type": "uint256"
        }
      ],
      "name": "balanceOf",
      "outputs": [
        {
          "internalType": "uint256",
          "name": "",
          "type": "uint256"
        }
      ],
      "stateMutability": "view",
      "type": "function"
    },
    {
      "inputs": [
        {
          "internalType": "address[]",
          "name": "accounts",
          "type": "address[]"
        },
        {
          "internalType": "uint256[]",
          "name": "ids",
          "type": "uint256[]"
        }
      ],
      "name": "balanceOfBatch",
      "outputs": [
        {
          "internalType": "uint256[]",
          "name": "",
          "type": "uint256[]"
        }
      ],
      "stateMutability": "view",
      "type": "function"
    },
    {
      "inputs": [],
      "name": "baseUri",
      "outputs": [
        {
          "internalType": "string",
          "name": "",
          "type": "string"
        }
      ],
      "stateMutability": "view",
      "type": "function"
    },
    {
      "inputs": [
        {
          "internalType": "address",
          "name": "account",
          "type": "address"
        },
        {
          "internalType": "address",
          "name": "operator",
          "type": "address"
        }
      ],
      "name": "isApprovedForAll",
      "outputs": [
        {
          "internalType": "bool",
          "name": "",
          "type": "bool"
        }
      ],
      "stateMutability": "view",
      "type": "function"
    },
    {
      "inputs": [
        {
          "internalType": "uint256",
          "name": "amount",
          "type": "uint256"
        }
      ],
      "name": "mint",
      "outputs": [],
      "stateMutability": "nonpayable",
      "type": "function"
    },
    {
      "inputs": [],
      "name": "name",
      "outputs": [
        {
          "internalType": "string",
          "name": "",
          "type": "string"
        }
      ],
      "stateMutability": "view",
      "type": "function"
    },
    {
      "inputs": [],
      "name": "owner",
      "outputs": [
        {
          "internalType": "address",
          "name": "",
          "type": "address"
        }
      ],
      "stateMutability": "view",
      "type": "function"
    },
    {
      "inputs": [],
      "name": "renounceOwnership",
      "outputs": [],
      "stateMutability": "nonpayable",
      "type": "function"
    },
    {
      "inputs": [
        {
          "internalType": "address",
          "name": "from",
          "type": "address"
        },
        {
          "internalType": "address",
          "name": "to",
          "type": "address"
        },
        {
          "internalType": "uint256[]",
          "name": "ids",
          "type": "uint256[]"
        },
        {
          "internalType": "uint256[]",
          "name": "values",
          "type": "uint256[]"
        },
        {
          "internalType": "bytes",
          "name": "data",
          "type": "bytes"
        }
      ],
      "name": "safeBatchTransferFrom",
      "outputs": [],
      "stateMutability": "nonpayable",
      "type": "function"
    },
    {
      "inputs": [
        {
          "internalType": "address",
          "name": "from",
          "type": "address"
        },
        {
          "internalType": "address",
          "name": "to",
          "type": "address"
        },
        {
          "internalType": "uint256",
          "name": "id",
          "type": "uint256"
        },
        {
          "internalType": "uint256",
          "name": "value",
          "type": "uint256"
        },
        {
          "internalType": "bytes",
          "name": "data",
          "type": "bytes"
        }
      ],
      "name": "safeTransferFrom",
      "outputs": [],
      "stateMutability": "nonpayable",
      "type": "function"
    },
    {
      "inputs": [
        {
          "internalType": "address",
          "name": "operator",
          "type": "address"
        },
        {
          "internalType": "bool",
          "name": "approved",
          "type": "bool"
        }
      ],
      "name": "setApprovalForAll",
      "outputs": [],
      "stateMutability": "nonpayable",
      "type": "function"
    },
    {
      "inputs": [
        {
          "internalType": "bytes4",
          "name": "interfaceId",
          "type": "bytes4"
        }
      ],
      "name": "supportsInterface",
      "outputs": [
        {
          "internalType": "bool",
          "name": "",
          "type": "bool"
        }
      ],
      "stateMutability": "view",
      "type": "function"
    },
    {
      "inputs": [],
      "name": "symbol",
      "outputs": [
        {
          "internalType": "string",
          "name": "",
          "type": "string"
        }
      ],
      "stateMutability": "view",
      "type": "function"
    },
    {
      "inputs": [],
      "name": "tokenCount",
      "outputs": [
        {
          "internalType": "uint256",
          "name": "",
          "type": "uint256"
        }
      ],
      "stateMutability": "view",
      "type": "function"
    },
    {
      "inputs": [
        {
          "internalType": "address",
          "name": "newOwner",
          "type": "address"
        }
      ],
      "name": "transferOwnership",
      "outputs": [],
      "stateMutability": "nonpayable",
      "type": "function"
    },
    {
      "inputs": [
        {
          "internalType": "uint256",
          "name": "_tokenId",
          "type": "uint256"
        }
      ],
      "name": "uri",
      "outputs": [
        {
          "internalType": "string",
          "name": "",
          "type": "string"
        }
      ],
      "stateMutability": "view",
      "type": "function"
    }
  ],
  "bytecode": "0x608060405233600860006101000a81548173ffffffffffffffffffffffffffffffffffffffff021916908373ffffffffffffffffffffffffffffffffffffffff1602179055503480156200005257600080fd5b5060405162003066380380620030668339818101604052810190620000789190620003c0565b33816200008b816200015260201b60201c565b50600073ffffffffffffffffffffffffffffffffffffffff168173ffffffffffffffffffffffffffffffffffffffff1603620001015760006040517f1e4fbdf7000000000000000000000000000000000000000000000000000000008152600401620000f89190620004be565b60405180910390fd5b62000112816200016760201b60201c565b50826004908162000124919062000726565b50816005908162000136919062000726565b50806007908162000148919062000726565b505050506200080d565b806002908162000163919062000726565b5050565b6000600360009054906101000a900473ffffffffffffffffffffffffffffffffffffffff16905081600360006101000a81548173ffffffffffffffffffffffffffffffffffffffff021916908373ffffffffffffffffffffffffffffffffffffffff1602179055508173ffffffffffffffffffffffffffffffffffffffff168173ffffffffffffffffffffffffffffffffffffffff167f8be0079c531659141344cd1fd0a4f28419497f9722a3daafe3b4186f6b6457e060405160405180910390a35050565b6000604051905090565b600080fd5b600080fd5b600080fd5b600080fd5b6000601f19601f8301169050919050565b7f4e487b7100000000000000000000000000000000000000000000000000000000600052604160045260246000fd5b62000296826200024b565b810181811067ffffffffffffffff82111715620002b857620002b76200025c565b5b80604052505050565b6000620002cd6200022d565b9050620002db82826200028b565b919050565b600067ffffffffffffffff821115620002fe57620002fd6200025c565b5b62000309826200024b565b9050602081019050919050565b60005b838110156200033657808201518184015260208101905062000319565b60008484015250505050565b6000620003596200035384620002e0565b620002c1565b90508281526020810184848401111562000378576200037762000246565b5b6200038584828562000316565b509392505050565b600082601f830112620003a557620003a462000241565b5b8151620003b784826020860162000342565b91505092915050565b600080600060608486031215620003dc57620003db62000237565b5b600084015167ffffffffffffffff811115620003fd57620003fc6200023c565b5b6200040b868287016200038d565b935050602084015167ffffffffffffffff8111156200042f576200042e6200023c565b5b6200043d868287016200038d565b925050604084015167ffffffffffffffff8111156200046157620004606200023c565b5b6200046f868287016200038d565b9150509250925092565b600073ffffffffffffffffffffffffffffffffffffffff82169050919050565b6000620004a68262000479565b9050919050565b620004b88162000499565b82525050565b6000602082019050620004d56000830184620004ad565b92915050565b600081519050919050565b7f4e487b7100000000000000000000000000000000000000000000000000000000600052602260045260246000fd5b600060028204905060018216806200052e57607f821691505b602082108103620005445762000543620004e6565b5b50919050565b60008190508160005260206000209050919050565b60006020601f8301049050919050565b600082821b905092915050565b600060088302620005ae7fffffffffffffffffffffffffffffffffffffffffffffffffffffffffffffffff826200056f565b620005ba86836200056f565b95508019841693508086168417925050509392505050565b6000819050919050565b6000819050919050565b60006200060762000601620005fb84620005d2565b620005dc565b620005d2565b9050919050565b6000819050919050565b6200062383620005e6565b6200063b62000632826200060e565b8484546200057c565b825550505050565b600090565b6200065262000643565b6200065f81848462000618565b505050565b5b8181101562000687576200067b60008262000648565b60018101905062000665565b5050565b601f821115620006d657620006a0816200054a565b620006ab846200055f565b81016020851015620006bb578190505b620006d3620006ca856200055f565b83018262000664565b50505b505050565b600082821c905092915050565b6000620006fb60001984600802620006db565b1980831691505092915050565b6000620007168383620006e8565b9150826002028217905092915050565b6200073182620004db565b67ffffffffffffffff8111156200074d576200074c6200025c565b5b62000759825462000515565b620007668282856200068b565b600060209050601f8311600181146200079e576000841562000789578287015190505b62000795858262000708565b86555062000805565b601f198416620007ae866200054a565b60005b82811015620007d857848901518255600182019150602085019450602081019050620007b1565b86831015620007f85784890151620007f4601f891682620006e8565b8355505b6001600288020188555050505b505050505050565b612849806200081d6000396000f3fe608060405234801561001057600080fd5b50600436106100ff5760003560e01c806395d89b4111610097578063a22cb46511610066578063a22cb4651461029c578063e985e9c5146102b8578063f242432a146102e8578063f2fde38b14610304576100ff565b806395d89b41146102265780639abc8320146102445780639f181b5e14610262578063a0712d6814610280576100ff565b80632eb2c2d6116100d35780632eb2c2d6146101b25780634e1273f4146101ce578063715018a6146101fe5780638da5cb5b14610208576100ff565b8062fdd58e1461010457806301ffc9a71461013457806306fdde03146101645780630e89341c14610182575b600080fd5b61011e60048036038101906101199190611af7565b610320565b60405161012b9190611b46565b60405180910390f35b61014e60048036038101906101499190611bb9565b61037a565b60405161015b9190611c01565b60405180910390f35b61016c61045c565b6040516101799190611cac565b60405180910390f35b61019c60048036038101906101979190611cce565b6104ea565b6040516101a99190611cac565b60405180910390f35b6101cc60048036038101906101c79190611ef8565b61051e565b005b6101e860048036038101906101e3919061208a565b6105c6565b6040516101f591906121c0565b60405180910390f35b6102066106cf565b005b6102106106e3565b60405161021d91906121f1565b60405180910390f35b61022e61070d565b60405161023b9190611cac565b60405180910390f35b61024c61079b565b6040516102599190611cac565b60405180910390f35b61026a610829565b6040516102779190611b46565b60405180910390f35b61029a60048036038101906102959190611cce565b61082f565b005b6102b660048036038101906102b19190612238565b610871565b005b6102d260048036038101906102cd9190612278565b610887565b6040516102df9190611c01565b60405180910390f35b61030260048036038101906102fd91906122b8565b61091b565b005b61031e6004803603810190610319919061234f565b6109c3565b005b600080600083815260200190815260200160002060008473ffffffffffffffffffffffffffffffffffffffff1673ffffffffffffffffffffffffffffffffffffffff16815260200190815260200160002054905092915050565b60007fd9b67a26000000000000000000000000000000000000000000000000000000007bffffffffffffffffffffffffffffffffffffffffffffffffffffffff1916827bffffffffffffffffffffffffffffffffffffffffffffffffffffffff1916148061044557507f0e89341c000000000000000000000000000000000000000000000000000000007bffffffffffffffffffffffffffffffffffffffffffffffffffffffff1916827bffffffffffffffffffffffffffffffffffffffffffffffffffffffff1916145b80610455575061045482610a49565b5b9050919050565b60048054610469906123ab565b80601f0160208091040260200160405190810160405280929190818152602001828054610495906123ab565b80156104e25780601f106104b7576101008083540402835291602001916104e2565b820191906000526020600020905b8154815290600101906020018083116104c557829003601f168201915b505050505081565b606060076104f783610ab3565b6040516020016105089291906124fc565b6040516020818303038152906040529050919050565b6000610528610b81565b90508073ffffffffffffffffffffffffffffffffffffffff168673ffffffffffffffffffffffffffffffffffffffff161415801561056d575061056b8682610887565b155b156105b15780866040517fe237d9220000000000000000000000000000000000000000000000000000000081526004016105a892919061252b565b60405180910390fd5b6105be8686868686610b89565b505050505050565b6060815183511461061257815183516040517f5b059991000000000000000000000000000000000000000000000000000000008152600401610609929190612554565b60405180910390fd5b6000835167ffffffffffffffff81111561062f5761062e611d00565b5b60405190808252806020026020018201604052801561065d5781602001602082028036833780820191505090505b50905060005b84518110156106c45761069a6106828287610c8190919063ffffffff16565b6106958387610c9590919063ffffffff16565b610320565b8282815181106106ad576106ac61257d565b5b602002602001018181525050806001019050610663565b508091505092915050565b6106d7610ca9565b6106e16000610d30565b565b6000600360009054906101000a900473ffffffffffffffffffffffffffffffffffffffff16905090565b6005805461071a906123ab565b80601f0160208091040260200160405190810160405280929190818152602001828054610746906123ab565b80156107935780601f1061076857610100808354040283529160200191610793565b820191906000526020600020905b81548152906001019060200180831161077657829003601f168201915b505050505081565b600780546107a8906123ab565b80601f01602080910402602001604051908101604052809291908181526020018280546107d4906123ab565b80156108215780601f106107f657610100808354040283529160200191610821565b820191906000526020600020905b81548152906001019060200180831161080457829003601f168201915b505050505081565b60065481565b610837610ca9565b60016006600082825461084a91906125db565b9250508190555061086e336006548360405180602001604052806000815250610df6565b50565b61088361087c610b81565b8383610e8f565b5050565b6000600160008473ffffffffffffffffffffffffffffffffffffffff1673ffffffffffffffffffffffffffffffffffffffff16815260200190815260200160002060008373ffffffffffffffffffffffffffffffffffffffff1673ffffffffffffffffffffffffffffffffffffffff16815260200190815260200160002060009054906101000a900460ff16905092915050565b6000610925610b81565b90508073ffffffffffffffffffffffffffffffffffffffff168673ffffffffffffffffffffffffffffffffffffffff161415801561096a57506109688682610887565b155b156109ae5780866040517fe237d9220000000000000000000000000000000000000000000000000000000081526004016109a592919061252b565b60405180910390fd5b6109bb8686868686610fff565b505050505050565b6109cb610ca9565b600073ffffffffffffffffffffffffffffffffffffffff168173ffffffffffffffffffffffffffffffffffffffff1603610a3d5760006040517f1e4fbdf7000000000000000000000000000000000000000000000000000000008152600401610a3491906121f1565b60405180910390fd5b610a4681610d30565b50565b60007f01ffc9a7000000000000000000000000000000000000000000000000000000007bffffffffffffffffffffffffffffffffffffffffffffffffffffffff1916827bffffffffffffffffffffffffffffffffffffffffffffffffffffffff1916149050919050565b606060006001610ac28461110a565b01905060008167ffffffffffffffff811115610ae157610ae0611d00565b5b6040519080825280601f01601f191660200182016040528015610b135781602001600182028036833780820191505090505b509050600082602001820190505b600115610b76578080600190039150507f3031323334353637383961626364656600000000000000000000000000000000600a86061a8153600a8581610b6a57610b6961260f565b5b04945060008503610b21575b819350505050919050565b600033905090565b600073ffffffffffffffffffffffffffffffffffffffff168473ffffffffffffffffffffffffffffffffffffffff1603610bfb5760006040517f57f447ce000000000000000000000000000000000000000000000000000000008152600401610bf291906121f1565b60405180910390fd5b600073ffffffffffffffffffffffffffffffffffffffff168573ffffffffffffffffffffffffffffffffffffffff1603610c6d5760006040517f01a83514000000000000000000000000000000000000000000000000000000008152600401610c6491906121f1565b60405180910390fd5b610c7a858585858561125d565b5050505050565b600060208202602084010151905092915050565b600060208202602084010151905092915050565b610cb1610b81565b73ffffffffffffffffffffffffffffffffffffffff16610ccf6106e3565b73ffffffffffffffffffffffffffffffffffffffff1614610d2e57610cf2610b81565b6040517f118cdaa7000000000000000000000000000000000000000000000000000000008152600401610d2591906121f1565b60405180910390fd5b565b6000600360009054906101000a900473ffffffffffffffffffffffffffffffffffffffff16905081600360006101000a81548173ffffffffffffffffffffffffffffffffffffffff021916908373ffffffffffffffffffffffffffffffffffffffff1602179055508173ffffffffffffffffffffffffffffffffffffffff168173ffffffffffffffffffffffffffffffffffffffff167f8be0079c531659141344cd1fd0a4f28419497f9722a3daafe3b4186f6b6457e060405160405180910390a35050565b600073ffffffffffffffffffffffffffffffffffffffff168473ffffffffffffffffffffffffffffffffffffffff1603610e685760006040517f57f447ce000000000000000000000000000000000000000000000000000000008152600401610e5f91906121f1565b60405180910390fd5b600080610e75858561130f565b91509150610e8760008784848761125d565b505050505050565b600073ffffffffffffffffffffffffffffffffffffffff168273ffffffffffffffffffffffffffffffffffffffff1603610f015760006040517fced3e100000000000000000000000000000000000000000000000000000000008152600401610ef891906121f1565b60405180910390fd5b80600160008573ffffffffffffffffffffffffffffffffffffffff1673ffffffffffffffffffffffffffffffffffffffff16815260200190815260200160002060008473ffffffffffffffffffffffffffffffffffffffff1673ffffffffffffffffffffffffffffffffffffffff16815260200190815260200160002060006101000a81548160ff0219169083151502179055508173ffffffffffffffffffffffffffffffffffffffff168373ffffffffffffffffffffffffffffffffffffffff167f17307eab39ab6107e8899845ad3d59bd9653f200f220920489ca2b5937696c3183604051610ff29190611c01565b60405180910390a3505050565b600073ffffffffffffffffffffffffffffffffffffffff168473ffffffffffffffffffffffffffffffffffffffff16036110715760006040517f57f447ce00000000000000000000000000000000000000000000000000000000815260040161106891906121f1565b60405180910390fd5b600073ffffffffffffffffffffffffffffffffffffffff168573ffffffffffffffffffffffffffffffffffffffff16036110e35760006040517f01a835140000000000000000000000000000000000000000000000000000000081526004016110da91906121f1565b60405180910390fd5b6000806110f0858561130f565b91509150611101878784848761125d565b50505050505050565b600080600090507a184f03e93ff9f4daa797ed6e38ed64bf6a1f0100000000000000008310611168577a184f03e93ff9f4daa797ed6e38ed64bf6a1f010000000000000000838161115e5761115d61260f565b5b0492506040810190505b6d04ee2d6d415b85acef810000000083106111a5576d04ee2d6d415b85acef8100000000838161119b5761119a61260f565b5b0492506020810190505b662386f26fc1000083106111d457662386f26fc1000083816111ca576111c961260f565b5b0492506010810190505b6305f5e10083106111fd576305f5e10083816111f3576111f261260f565b5b0492506008810190505b61271083106112225761271083816112185761121761260f565b5b0492506004810190505b60648310611245576064838161123b5761123a61260f565b5b0492506002810190505b600a8310611254576001810190505b80915050919050565b6112698585858561133f565b600073ffffffffffffffffffffffffffffffffffffffff168473ffffffffffffffffffffffffffffffffffffffff16146113085760006112a7610b81565b905060018451036112f75760006112c8600086610c9590919063ffffffff16565b905060006112e0600086610c9590919063ffffffff16565b90506112f08389898585896116e7565b5050611306565b61130581878787878761189b565b5b505b5050505050565b60608060405191506001825283602083015260408201905060018152826020820152604081016040529250929050565b805182511461138957815181516040517f5b059991000000000000000000000000000000000000000000000000000000008152600401611380929190612554565b60405180910390fd5b6000611393610b81565b905060005b83518110156115a25760006113b68286610c9590919063ffffffff16565b905060006113cd8386610c9590919063ffffffff16565b9050600073ffffffffffffffffffffffffffffffffffffffff168873ffffffffffffffffffffffffffffffffffffffff16146114fa57600080600084815260200190815260200160002060008a73ffffffffffffffffffffffffffffffffffffffff1673ffffffffffffffffffffffffffffffffffffffff168152602001908152602001600020549050818110156114a257888183856040517f03dee4c5000000000000000000000000000000000000000000000000000000008152600401611499949392919061263e565b60405180910390fd5b81810360008085815260200190815260200160002060008b73ffffffffffffffffffffffffffffffffffffffff1673ffffffffffffffffffffffffffffffffffffffff16815260200190815260200160002081905550505b600073ffffffffffffffffffffffffffffffffffffffff168773ffffffffffffffffffffffffffffffffffffffff1614611595578060008084815260200190815260200160002060008973ffffffffffffffffffffffffffffffffffffffff1673ffffffffffffffffffffffffffffffffffffffff168152602001908152602001600020600082825461158d91906125db565b925050819055505b5050806001019050611398565b5060018351036116615760006115c2600085610c9590919063ffffffff16565b905060006115da600085610c9590919063ffffffff16565b90508573ffffffffffffffffffffffffffffffffffffffff168773ffffffffffffffffffffffffffffffffffffffff168473ffffffffffffffffffffffffffffffffffffffff167fc3d58168c5ae7397731d063d5bbf3d657854427343f4c083240f7aacaa2d0f628585604051611652929190612554565b60405180910390a450506116e0565b8373ffffffffffffffffffffffffffffffffffffffff168573ffffffffffffffffffffffffffffffffffffffff168273ffffffffffffffffffffffffffffffffffffffff167f4a39dc06d4c0dbc64b70af90fd698a233a518aa5d07e595d983b8c0526c8f7fb86866040516116d7929190612683565b60405180910390a45b5050505050565b60008473ffffffffffffffffffffffffffffffffffffffff163b1115611893578373ffffffffffffffffffffffffffffffffffffffff1663f23a6e6187878686866040518663ffffffff1660e01b815260040161174895949392919061270f565b6020604051808303816000875af192505050801561178457506040513d601f19601f82011682018060405250810190611781919061277e565b60015b611808573d80600081146117b4576040519150601f19603f3d011682016040523d82523d6000602084013e6117b9565b606091505b50600081510361180057846040517f57f447ce0000000000000000000000000000000000000000000000000000000081526004016117f791906121f1565b60405180910390fd5b805181602001fd5b63f23a6e6160e01b7bffffffffffffffffffffffffffffffffffffffffffffffffffffffff1916817bffffffffffffffffffffffffffffffffffffffffffffffffffffffff19161461189157846040517f57f447ce00000000000000000000000000000000000000000000000000000000815260040161188891906121f1565b60405180910390fd5b505b505050505050565b60008473ffffffffffffffffffffffffffffffffffffffff163b1115611a47578373ffffffffffffffffffffffffffffffffffffffff1663bc197c8187878686866040518663ffffffff1660e01b81526004016118fc9594939291906127ab565b6020604051808303816000875af192505050801561193857506040513d601f19601f82011682018060405250810190611935919061277e565b60015b6119bc573d8060008114611968576040519150601f19603f3d011682016040523d82523d6000602084013e61196d565b606091505b5060008151036119b457846040517f57f447ce0000000000000000000000000000000000000000000000000000000081526004016119ab91906121f1565b60405180910390fd5b805181602001fd5b63bc197c8160e01b7bffffffffffffffffffffffffffffffffffffffffffffffffffffffff1916817bffffffffffffffffffffffffffffffffffffffffffffffffffffffff191614611a4557846040517f57f447ce000000000000000000000000000000000000000000000000000000008152600401611a3c91906121f1565b60405180910390fd5b505b505050505050565b6000604051905090565b600080fd5b600080fd5b600073ffffffffffffffffffffffffffffffffffffffff82169050919050565b6000611a8e82611a63565b9050919050565b611a9e81611a83565b8114611aa957600080fd5b50565b600081359050611abb81611a95565b92915050565b6000819050919050565b611ad481611ac1565b8114611adf57600080fd5b50565b600081359050611af181611acb565b92915050565b60008060408385031215611b0e57611b0d611a59565b5b6000611b1c85828601611aac565b9250506020611b2d85828601611ae2565b9150509250929050565b611b4081611ac1565b82525050565b6000602082019050611b5b6000830184611b37565b92915050565b60007fffffffff0000000000000000000000000000000000000000000000000000000082169050919050565b611b9681611b61565b8114611ba157600080fd5b50565b600081359050611bb381611b8d565b92915050565b600060208284031215611bcf57611bce611a59565b5b6000611bdd84828501611ba4565b91505092915050565b60008115159050919050565b611bfb81611be6565b82525050565b6000602082019050611c166000830184611bf2565b92915050565b600081519050919050565b600082825260208201905092915050565b60005b83811015611c56578082015181840152602081019050611c3b565b60008484015250505050565b6000601f19601f8301169050919050565b6000611c7e82611c1c565b611c888185611c27565b9350611c98818560208601611c38565b611ca181611c62565b840191505092915050565b60006020820190508181036000830152611cc68184611c73565b905092915050565b600060208284031215611ce457611ce3611a59565b5b6000611cf284828501611ae2565b91505092915050565b600080fd5b7f4e487b7100000000000000000000000000000000000000000000000000000000600052604160045260246000fd5b611d3882611c62565b810181811067ffffffffffffffff82111715611d5757611d56611d00565b5b80604052505050565b6000611d6a611a4f565b9050611d768282611d2f565b919050565b600067ffffffffffffffff821115611d9657611d95611d00565b5b602082029050602081019050919050565b600080fd5b6000611dbf611dba84611d7b565b611d60565b90508083825260208201905060208402830185811115611de257611de1611da7565b5b835b81811015611e0b5780611df78882611ae2565b845260208401935050602081019050611de4565b5050509392505050565b600082601f830112611e2a57611e29611cfb565b5b8135611e3a848260208601611dac565b91505092915050565b600080fd5b600067ffffffffffffffff821115611e6357611e62611d00565b5b611e6c82611c62565b9050602081019050919050565b82818337600083830152505050565b6000611e9b611e9684611e48565b611d60565b905082815260208101848484011115611eb757611eb6611e43565b5b611ec2848285611e79565b509392505050565b600082601f830112611edf57611ede611cfb565b5b8135611eef848260208601611e88565b91505092915050565b600080600080600060a08688031215611f1457611f13611a59565b5b6000611f2288828901611aac565b9550506020611f3388828901611aac565b945050604086013567ffffffffffffffff811115611f5457611f53611a5e565b5b611f6088828901611e15565b935050606086013567ffffffffffffffff811115611f8157611f80611a5e565b5b611f8d88828901611e15565b925050608086013567ffffffffffffffff811115611fae57611fad611a5e565b5b611fba88828901611eca565b9150509295509295909350565b600067ffffffffffffffff821115611fe257611fe1611d00565b5b602082029050602081019050919050565b600061200661200184611fc7565b611d60565b9050808382526020820190506020840283018581111561202957612028611da7565b5b835b81811015612052578061203e8882611aac565b84526020840193505060208101905061202b565b5050509392505050565b600082601f83011261207157612070611cfb565b5b8135612081848260208601611ff3565b91505092915050565b600080604083850312156120a1576120a0611a59565b5b600083013567ffffffffffffffff8111156120bf576120be611a5e565b5b6120cb8582860161205c565b925050602083013567ffffffffffffffff8111156120ec576120eb611a5e565b5b6120f885828601611e15565b9150509250929050565b600081519050919050565b600082825260208201905092915050565b6000819050602082019050919050565b61213781611ac1565b82525050565b6000612149838361212e565b60208301905092915050565b6000602082019050919050565b600061216d82612102565b612177818561210d565b93506121828361211e565b8060005b838110156121b357815161219a888261213d565b97506121a583612155565b925050600181019050612186565b5085935050505092915050565b600060208201905081810360008301526121da8184612162565b905092915050565b6121eb81611a83565b82525050565b600060208201905061220660008301846121e2565b92915050565b61221581611be6565b811461222057600080fd5b50565b6000813590506122328161220c565b92915050565b6000806040838503121561224f5761224e611a59565b5b600061225d85828601611aac565b925050602061226e85828601612223565b9150509250929050565b6000806040838503121561228f5761228e611a59565b5b600061229d85828601611aac565b92505060206122ae85828601611aac565b9150509250929050565b600080600080600060a086880312156122d4576122d3611a59565b5b60006122e288828901611aac565b95505060206122f388828901611aac565b945050604061230488828901611ae2565b935050606061231588828901611ae2565b925050608086013567ffffffffffffffff81111561233657612335611a5e565b5b61234288828901611eca565b9150509295509295909350565b60006020828403121561236557612364611a59565b5b600061237384828501611aac565b91505092915050565b7f4e487b7100000000000000000000000000000000000000000000000000000000600052602260045260246000fd5b600060028204905060018216806123c357607f821691505b6020821081036123d6576123d561237c565b5b50919050565b600081905092915050565b60008190508160005260206000209050919050565b60008154612409816123ab565b61241381866123dc565b9450600182166000811461242e576001811461244357612476565b60ff1983168652811515820286019350612476565b61244c856123e7565b60005b8381101561246e5781548189015260018201915060208101905061244f565b838801955050505b50505092915050565b600061248a82611c1c565b61249481856123dc565b93506124a4818560208601611c38565b80840191505092915050565b7f2e6a736f6e000000000000000000000000000000000000000000000000000000600082015250565b60006124e66005836123dc565b91506124f1826124b0565b600582019050919050565b600061250882856123fc565b9150612514828461247f565b915061251f826124d9565b91508190509392505050565b600060408201905061254060008301856121e2565b61254d60208301846121e2565b9392505050565b60006040820190506125696000830185611b37565b6125766020830184611b37565b9392505050565b7f4e487b7100000000000000000000000000000000000000000000000000000000600052603260045260246000fd5b7f4e487b7100000000000000000000000000000000000000000000000000000000600052601160045260246000fd5b60006125e682611ac1565b91506125f183611ac1565b9250828201905080821115612609576126086125ac565b5b92915050565b7f4e487b7100000000000000000000000000000000000000000000000000000000600052601260045260246000fd5b600060808201905061265360008301876121e2565b6126606020830186611b37565b61266d6040830185611b37565b61267a6060830184611b37565b95945050505050565b6000604082019050818103600083015261269d8185612162565b905081810360208301526126b18184612162565b90509392505050565b600081519050919050565b600082825260208201905092915050565b60006126e1826126ba565b6126eb81856126c5565b93506126fb818560208601611c38565b61270481611c62565b840191505092915050565b600060a08201905061272460008301886121e2565b61273160208301876121e2565b61273e6040830186611b37565b61274b6060830185611b37565b818103608083015261275d81846126d6565b90509695505050505050565b60008151905061277881611b8d565b92915050565b60006020828403121561279457612793611a59565b5b60006127a284828501612769565b91505092915050565b600060a0820190506127c060008301886121e2565b6127cd60208301876121e2565b81810360408301526127df8186612162565b905081810360608301526127f38185612162565b9050818103608083015261280781846126d6565b9050969550505050505056fea2646970667358221220d262cc15c979ab87d6fbecd269429d8c79b41d4af62c227dc9286a82011e843a64736f6c63430008160033",
  "linkReferences": {},
  "deployedLinkReferences": {}
}